:0203A800034709
:0203AA000360EE
:0203AC000374D8
:0203AE000388C2
:0203B00002F158
:10036000D2907D327F80120120C2907D327F801238
:04037000012080ECFC
:10037400D2917D967F80120120C2917D967F80125A
:04038400012080ECE8
:10038800D2927DFA7F80120120C2927DFA7F80127C
:04039800012080ECD4
:1002F100E4F5A07D327F80120120E4F50EF50FE5D3
:10030100A025E04401F5A07D327F80120120050F78
:10031100E50F7002050EC39408E50E940040E0E479
:10032100F50EF50FC3E50F9408E50E940050CBE5EB
:10033100A025E0F5A07D327F80120120050FE50F99
:0603410070E2050E80DEF3
:100347007F0112000E7F0212000E7F0312000E7F44
:090357000412000EE4FF020097FD
:10000E00EFD3940440037FFF2274112F2FF8E620C4
:10001E00E5F4C2AFE64430F6D2AFAE0CEEC39F505D
:10002E00210E741A2EF8E6F908E618BE040274FFC3
:10003E00FDED69600909E71919F7090980F316162C
:10004E0080DAEED39F400405810581EED39F4022D6
:10005E00741A2EF808E6F9EEB50C02A981180606F8
:10006E00E6FDED6960091919E70909F71980F31E14
:10007E0080D9EF241AF8E604F8EF2F049003A89322
:09008E00F608EF2F93F67F002223
:10009700EFD3940440037FFF22EF232411F8E630C7
:1000A700E5F4C2AFE6548CF6D2AFE50CB5070A7497
:1000B7001A2FF8E6F5810201FA502E741B2FF8E685
:1000C700BF040274FFFD18E6F9741A2FF8FBE6FC6B
:1000D700E96C6008A805E7F61D1980F4A803A605D2
:1000E7001FE50CB507E37F0022741B2FF8E6FD1808
:1000F70086010F741A2FF8A601088604E50CB507C8
:1001070002AC81ED6C60080D09A805E6F780F4E5FF
:090117000CB507DE89817F00228E
:100120008FF0E4FFFEE50C232410F8C2A930F70D90
:100130007F08E6600B2DF660325030800730F10604
:10014000EDF660277E020830F010C2AFE610E7251A
:100150000E30E20CD2AF7F048014C2AFE610E71578
:1001600054EC4EF6D2AFD2A90201FA7F0808EF4450
:0F01700083F4C2AF56C6D2AFD2A954804FFF223C
:03000B000201846B
:10017F00C2AF80FE3212018385D00B75D008AAE082
:10018F00C28CE58A24F7F58AE58C34D8F58CD28CAD
:10019F00EC241BF8E6BC040274FFC39581B4140071
:1001AF0040CE7905781016E608700BC2AFE630E145
:1001BF00034418F6D2AF08D9EDEA8BD030000122F4
:1001CF00D50DFCC0E0C0D0C0F0C083C082C000C05D
:1001DF0001C002C003C004C005C006C007E50C2360
:1001EF002411F87440C2AF46F6D2AFD200E50CFF2F
:1001FF00232411F80F0808BF05047F007811E6309B
:10020F00E4F200E50CC39F5020050C741A250CF87E
:10021F00E6FDA68108E6AE0CBE040274FFCDF8E839
:10022F006D60E008E6C0E080F6E50CD39F4027E55F
:10023F000C241BF8E6AE0CBE040274FFFD18E6CDCD
:10024F00F8E5816D6006D0E0F61880F5E50C241A0C
:10025F00C8F6150C80D3750D05E50C232411F87F16
:10026F0004C2AFE610E61E30E00310E20C7F003050
:05027F00E10730E3047B
:100284007F0854F4547CC6D2AF54804207C2002283
:10029400F6D2AFD007D006D005D004D003D002D018
:1002A40001D000D082D083D0F0D0D0D0E0C20022E0
:1002B400781AA68174046006FF0876FFDFFB7F05C9
:1002C400E47810F608F608DFFA781176309003A87F
:1002D400740193C0E0E493C0E0750D054389017592
:0D02E4008AF0758CD8D28CD2AFD2A922043A
:0300000002039C5C
:0C039C00787FE4F6D8FD7581200202B4E1
:00000001FF
