:10003E002D2D2D2D2D2D2D2D2D2D2D2D2D2D2D2DE2
:10004E002D2D2D2D2D2D2D2D2D2D2D2D2D2D2D2DD2
:10005E002D2D2D0045787465726E616C20726F6D5A
:01006E000091
:100003007581627FFD1201237BFF7A00793E120026
:100013009412012E7BFF7A00796212009412012E52
:100023003098FDC2B21201408F0812013812012E1E
:0B003300E50824AE70EA12006F80E5C3
:10006F00E4F50AF50BAF0BAE0A1200B98F091200B7
:10007F00EC050BE50B7002050AC3940AE50A940020
:05008F0040E302012E18
:1000B900AD07AF068D80D2B5C2B553077F8FA0C2F9
:0900C900B7C2B6AF80D2B7D2B6BF
:0100D200220B
:0B0123007598507589208F8DD28E22B8
:080138008F993099FDC2992254
:05014000C298AF9922F6
:100094008B098A0A890BAB09AA0AA90B1200D3603F
:1000A40013050BE50B7002050A14F91200D3FF12B5
:0500B400013880E2228A
:10010400EFC3940A500674302FFF800474372FFF16
:03011400020138AD
:1000EC00AE07EE54F0C4540FFF120104EE540FFF90
:0800FC001201047F200201380B
:0A012E007F0D1201387F0A0201382C
:03000000020117E3
:0C011700787FE4F6D8FD75810B02000330
:1000D300BB010689828A83E0225002E722BBFE022B
:0900E300E32289828A83E493225E
:00000001FF
