:100AA300616464726573733A202020202020202023
:100AB300646174613A2020202020202020202020FF
:100A8300E4FDFCC3ED9FEC9E5015E4FBFA0BBB00A9
:0F0A9300010AEB647B4A70F50DBD00010C80E495
:010AA2002231
:0E0AF700D2937F017E00120A83C293020A830B
:090B2700C295D2948F80020AF7F6
:090B3000C295C2948F80020AF7FD
:050B39007F01020B30FA
:050B3E007F0C020B30EA
:050B43007F08020B30E9
:100AC300C294C2957F147E00120A837F38120B30C2
:0B0AD300120B3E7F06120B30020B39A5
:100ADE00A905EF24FE600904700EE9144480800419
:090AEE00E91444C0FF120B302290
:050B48007F0F020B30DD
:050B4D007F0E020B30D9
:0D0A51007D017F01120ADE7B007A0079240E
:100A5E008B448A458946AB44AA45A94612053B609C
:100A6E00130546E5467002054514F912053BFF12C3
:050A7E000B2780E222BD
:040A0B00AB07AA0685
:100A0F00E4F5547C007D0AAF03AE02120554ED24C9
:100A1F0030FFAE54055474442EF8A6077C007D0AAF
:100A2F00AF03AE02120554AA06AB07EB4A70D4E52A
:100A3F0054600E155474442554F8E6FF120B2780AA
:010A4F00EEB8
:010A50002283
:080999008F158E148D138C12D2
:1009A10012023F8E188F19AC16AD17E41202068F92
:1009B1000F8E0E8D0D8C0C7F007E007D207C4112F0
:1009C1000722C004C005C006C007AC18AD19E41267
:1009D1000206A804A905AA06AB07AF15AE14AD130C
:1009E100AC12120006D003D002D001D0001200FBDD
:1009F10012023F8F828E83AF19AE18120A0B7F2E1F
:0A0A0100120B27AF82AE83020A0B2E
:0B0B11008E1E8F1F8F828E83EDF0225E
:0A0B1C008E1E8F1F8F828E83E0FF74
:010B260022AC
:1008390078247C007D007BFF7A0A79A37E007F10F3
:1008490012051578347C007D007BFF7A0A79B37E26
:10085900007F10120515E4F521F522AE21AF22E43F
:10086900FCFDFB7A80F9F8D31205B74013AD22AF2E
:1008790022AE21120B110522E52270DF052180DB52
:10088900120AC3120A517D017F02120ADE7B007A25
:10089900007934120A5EE4F521F522AE21AF22E493
:1008A900FCFDFB7A80F9F8D31205B740E9AF22AE17
:1008B90021120B1C8F23120A517D097F01120ADEB6
:1008C900AF22AE21120A0B7D017F02120ADE7B00E4
:1008D9007A007934120A5E7D067F02120ADEAF239E
:1008E9007E00120A0B7FE87E03120A830522E522A5
:0608F90070A9052180A595
:100003000202ABE86480F8E933E83360110460F07E
:10001300ED33EC337009E8FCE9FDEAFEEBFF220463
:1000230060DED3EB9FEA9EE99DE8C2E78CF0C2F75E
:1000330095F0400CE8CCF8E9CDF9EACEFAEBCFFB2A
:1000430012027685D0F05804700320D5B3E804700B
:10005300075002B2D50202B592D5EC0460F7E4CCA6
:10006300C0E0C398F8603B94186008400DD0E0FBF3
:1000730002028DE4FBFAC9FC8028E830E406E4C9F7
:10008300FBE4CAFCE830E305E4C9CACBFCE8540747
:100093006010F8C3E913F9EA13FAEB13FBEC13FC52
:1000A300D8F130F52FC3E49CFCEF9BFFEE9AFEEDF5
:1000B30099FDD0E0FBEF4E4D4C701222DB030202A0
:1000C300B2EC2CFCEF33FFEE33FEED33FDED30E706
:1000D300EB02028DEF2BFFEE3AFEED39FDD0E0FB94
:1000E30050130BBB00030202B5ED13FDEE13FEEF3D
:0800F30013FFEC13FC02028D67
:1000FB00EC4D6011E8497017ED33EC3304600DE4FF
:10010B00FCFFFEFD22E933E8330470F80202AB1268
:10011B00027658046009E4CC248150062850090269
:10012B0002B52840030202B2C0E0EB4A7044B9802A
:10013B0006D0E0FB0202A1EF4E701CBD8008EBFF66
:10014B00EAFEE9FD80EBE98DF0A4FEE5F00201E4A7
:10015B00E9CDF9EAFEEBFFEF89F0A4FCE5F0CE89DF
:10016B00F0A42EFFE435F0CD89F0A42DFEE435F09C
:10017B008067EF4E7005BD80D780C3EF8BF0A4ACCA
:10018B00F0EE8BF0A42CFCE435F0F8EF8AF0A42C05
:10019B00E5F038FCE433CB8DF0A42CFCE5F03BF818
:1001AB00EE8AF0A42CFCE5F038F8E433CF89F0A408
:1001BB002CFCE5F038CF3400CE89F0A42FFFE5F00E
:1001CB003EFEE433C98DF0A42EFEE5F039CD8AF066
:1001DB00A42FFFE5F03EFEE43DFD33D0E0FB5007DE
:1001EB000BBB000F0202B5EC2CFCEF33FFEE33FE22
:0601FB00ED33FD02028D50
:1002010075F020800E75F010800575F0087D007E78
:10021100007F003392D530D5031205A9EC3340108D
:10022100EF33FFEE33FEED33FDEC33FCD5F0ED2281
:0E023100E5F0247EA2D513CC92E7CDCEFF22BD
:10023F00EDD2E7CD33EC3392D524814006E4FFFEB7
:10024F00FDFC22FCE4CFCECDCC24E0501174FF8016
:10025F00EDC3CC13CCCD13CDCE13CECF13CF0470B3
:07026F00F030D5DE0205A905
:100722008F0B8E0A8D098C08E4FFFE7D807C3FAB27
:100732000BAA0AA909A8081202DA7009AF0BAE0ABD
:10074200AD09AC0822AF0BAE0AAD09AC081202C06B
:10075200FBAF0FAE0EAD0DAC0C1202C0FFBF010815
:10076200E4FFFE7D807C3F22EF64046022EB6404A0
:10077200601DBB0127E4FFFEFDFCAB0FAA0EA90D15
:10078200A80C1202DA60084006E4FFFEFDFC2274A7
:10079200FFF50FF50EF50DF50C020830E4F510F536
:1007A20011FFFEFDFCAB0BAA0AA909A8081202DA86
:1007B200504BAF0FAE0EAD0DAC0C12023F8E108F30
:1007C20011AC10AD11EC120206C8ECC8C9EDC9CAD1
:1007D200EECACBEFCBAF0FAE0EAD0DAC0C120006D6
:1007E200E4FBFAF9F81202DA70A5AF0BAE0AAD0912
:1007F200AC081203478F0B8E0A8D098C08AF0BAE23
:100802000AAD09AC08120621AB0FAA0EA90DA80C5D
:100812001200FB1209378F0F8E0E8D0D8C0CE51115
:1008220030E00B1203478F0F8E0E8D0D8C0CAF0F25
:07083200AE0EAD0DAC0C226F
:10027600E9D2E7C933E833F892D5EDD2E7CD33ECCE
:0702860033FC5002B2D52247
:10028D00EC30E7100FBF000C0EBE00080DBD0004D2
:10029D000BEB6014A2D5EB13FCED92E7FD2274FF7E
:1002AD00FCFDFEFF22E480F8A2D574FF13FC7D80D7
:0302BD00E480EFEB
:1002C000ED33EC33601004700FED547F7005740251
:0A02D00092E0227404220422E422CA
:1002DA0074F8CC6480CCC86480C8F582046043C3D7
:1002EA00EB9FF5F0EA9E42F0E99D42F0E89C45F06A
:1002FA0060305018E5825FFFE582F42B5582FB508F
:10030A00210ABA001D09B90019088016E5825BFBAB
:10031A00E582F42F5582FF50090EBE00050DBD007F
:10032A00010CC3EB9FF5F0EA9E42F0E99D42F0E82A
:0D033A009C45F06007CC4820E701B3EC22A1
:10034700ED33EC33600A047003BD8004ECB2E7FCC4
:010357002283
:1008FF0033DA929E35B16011377FE5FE3921848955
:10090F003AAEC3FF3C1D955B3D6358473E75FDF006
:10091F003F3172183F800000C2D50202B50202AB10
:10092F00BD80FA50F30202B2ED33EC330460F17B79
:10093F003B7AAA79B8783F1200FBED33EC3392D5AE
:10094F00247B5011A2D570DB500BED448024045052
:10095F0004A2D580CEEFFBEEFAEDF9ECF812023FD0
:10096F00EFF582F404FC12020B12000AC082900809
:10097F00FF7409120407ED33CC33D0F092D525F074
:0A098F00A2D57001C313CC13FD22A2
:1005ED003E9248DA3ECCCCCD3F2AAAAB400000006B
:1005FD003F8000003F9837F03FB504F33FD744FCF0
:10060D003E3172173EB172173F0515913EDE5BD933
:10061D00D2008002C200EDD2E7F8CD33EC33047086
:10062D000BBD800592D50202B50202AB40FBD3147F
:10063D0060F2F5F07C3FEE7A00C39496C8948B403F
:10064D00230AC89469C8941A401A0AC89468C894B1
:10065D001F40110AC8945AC89425400805F07A0025
:10066D00CDC2E7CDC0F08C1A8D1B8E1C8F1DEA23D9
:10067D0023C0E024FDF582E43405F5831205DD1277
:10068D00000AECC0E0EDC0E0EEC0E0EFC0E0120506
:10069D00CDA81AA91BAA1CAB1D120006D0E0FBD0D9
:1006AD00E0FAD0E0F9D0E0B2E7F812035B8C1A8DD6
:1006BD001B8E1C8F1D9005ED74031203F8A81AA94B
:1006CD001BAA1CAB1D1200FBD0E0600F2409F582A4
:1006DD00E43406F5831205DD12000A8C1A8D1B8E8B
:1006ED001C8F1DD0E0C3947FFDE49400FC12020624
:1006FD007B187A727931783F1200FBA81AA91BAAD0
:10070D001CAB1D12000A30000B7BD97A5B79DE78A9
:05071D003E1200FB226A
:100358000202B5EC5D046005E8590470030202ABC3
:10036800120276580460F6EC4860F2EC7004FDFE68
:10037800FF22C860DB2481C85009C3986002500678
:100388000202B29850CAF582E9294B4A7005AB823D
:100398000202A175F0007C1A7880C3EF9BEE9AEDFB
:1003A80099400DC3EF9BFFEE9AFEED99FDE842F0F0
:1003B800DC23ACF0D0E0FFD0E0FED0E0FDAB822043
:1003C800E7101BEB60BAEC2CFCEF33FFEE33FEEDCD
:1003D80033FD02028DE803F830E705C0F075F00040
:1003E800EF2FFFEE33FEED33FD40B830E7C280AAB1
:1003F800C0E0EFFBEEFAEDF9ECF81200FBD0E0F507
:10040800F0EFFBEEFAEDF9ECF81205CDA3A3A3A3E8
:10041800E8C0E0E9C0E0EAC0E0EBC0E0C0F01200EC
:10042800FB1205DDA3A3A3A312000AD0F0D0E0FBC2
:0D043800D0E0FAD0E0F9D0E0F8D5F0D42201
:03000000020B05EB
:0C0B0500787FE4F6D8FD758154020839B1
:10044500E709F608DFFA8046E709F208DFFA803E99
:1004550088828C83E709F0A3DFFA8032E309F60886
:10046500DFFA8078E309F208DFFA807088828C83EE
:10047500E309F0A3DFFA806489828A83E0A3F608A2
:10048500DFFA805889828A83E0A3F208DFFA804C7C
:1004950080D280FA80C680D4806980F28033801053
:1004A50080A680EA809A80A880DA80E280CA8033BC
:1004B50089828A83ECFAE493A3C8C582C8CCC58334
:1004C500CCF0A3C8C582C8CCC583CCDFE9DEE78004
:1004D5000D89828A83E493A3F608DFF9ECFAA9F083
:1004E500EDFB2289828A83ECFAE0A3C8C582C8CCD9
:1004F500C583CCF0A3C8C582C8CCC583CCDFEADEF2
:10050500E880DB89828A83E493A3F208DFF980CC53
:1005150088F0EF60010E4E60C388F0ED2402B4044C
:100525000050B9F582EB2402B4040050AF232345F3
:060535008223900495737F
:10053B00BB010689828A83E0225002E722BBFE02BE
:09054B00E32289828A83E49322F1
:10055400BC000BBE0029EF8DF084FFADF022E4CC8B
:10056400F875F008EF2FFFEE33FEEC33FCEE9DEC54
:10057400984005FCEE9DFE0FD5F0E9E4CEFD22ED9A
:10058400F8F5F0EE8420D21CFEADF075F008EF2FE4
:10059400FFED33FD4007985006D5F0F222C398FDD5
:0505A4000FD5F0EA2272
:0E05A900C3E49FFFE49EFEE49DFDE49CFC2263
:1005B700EB9FF5F0EA9E42F0E99D42F0EC6480C8BB
:0605C70064809845F0225B
:1005CD00E493FC740193FD740293FE740393FF2274
:1005DD00E493F8740193F9740293FA740393FB2274
:00000001FF
