:10013C000A10C0F9A4B0999282F8809006080803BE
:0D014C004621060E010E0F010F05011A14C9
:04015A00F8E6F5A02E
:10015E00E4FDFCC3ED9FEE6480F8EC6480985007DC
:07016E000DBD00010C80EC47
:010175002267
:10008F00E51B75F00A84F51DE51B75F00A8485F0F4
:10009F001EE51C75F00A84F9E51C75F00A84ABF0B7
:1000AF00E4FA7590017410251EF8E6F5A07FC87E5E
:1000BF000012015E7590027410251D12015A759081
:1000CF000474102B12015A75900874102912015ADA
:0800DF000ABA65CE151B151CC1
:0100E70022F6
:1000E800C285C284C283C282C281C280850E1BD2ED
:1000F80082851A1CD28312008FE51B70F9C2828593
:100108000F1BD28112008FE51B70F9C281C2838553
:100118001A1BD280850E1CD28512008FE51C70F93F
:10012800C285850F1CD28412008FE51C70F9C2802D
:04013800C28480B845
:03000000020003F8
:0C000300787FE4F6D8FD75811E02004AEB
:10000F000200E8E493A3F8E493A34003F68001F21F
:10001F0008DFF48029E493A3F85407240CC8C333F2
:10002F00C4540F4420C8834004F456800146F6DFC1
:10003F00E4800B010204081020408090013CE47E14
:10004F00019360BCA3FF543F30E509541FFEE493B6
:10005F00A360010ECF54C025E060A840B8E493A37D
:10006F00FAE493A3F8E493A3C8C582C8CAC583CAA8
:10007F00F0A3C8C582C8CAC583CADFE9DEE780BE60
:0101590000A5
:00000001FF
