:100910005048414E20434F4E472044414E480031FD
:10092000393131393136302053504B540041204653
:100930004C4F41543A2000434F554E54203D200027
:10098E00E4FDFCC3ED9FEC9E5015E4FBFA0BBB009F
:0F099E00010AEB647B4A70F50DBD00010C80E48B
:0109AD002227
:0E09E900D2A27F017E0012098EC2A202098EE8
:0D094000E9C4540FFF12094D1209E9AF017F
:10094D00EF1392A4EFC3131392A5EF1313543F1398
:0C095D0092A6EF131313541F1392A7224D
:0C09F700A907C2A1D2A01209400209E920
:0C0A0300A907C2A1C2A01209400209E923
:070A0F007FE87E0312098E4F
:050A16007F01020A034C
:050A27007F0C020A0330
:050A2C007F08020A032F
:1009AE00C2A0C2A17F147E0012098E7F02120A031A
:1009BE007F28120A03120A277F06120A03020A165A
:1009CE008D25EF24FE600A047010E5251444808006
:0B09DE0005E5251444C0FF120A0322A7
:050A31007F0F020A0323
:050A36007F0E020A031F
:100969008B258A268927AB25AA26A9271204456043
:10097900130527E5277002052614F9120445FF120D
:0509890009F780E222E5
:0408CA00AB07AA06C8
:1008CE00E4F53D7C007D0AAF03AE0212045EED241A
:1008DE0030FFAE3D053D742D2EF8A6077C007D0A37
:1008EE00AF03AE0212045EAA06AB07EB4A70D4E564
:1008FE003D600E153D742D253DF8E6FF1209F7807B
:01090E00EEFA
:01090F0022C5
:080858008F288E278D268C25C8
:1008600012023F8E2B8F2CAC29AD2AE41202068F88
:10087000348E338D328C317F007E007D207C41129E
:100880000616C004C005C006C007AC2BAD2CE41290
:100890000206A804A905AA06AB07AF28AE27AD2615
:1008A000AC25120006D003D002D001D0001200FB0C
:1008B00012023F8F828E83AF2CAE2B1208CA7F2E7E
:0A08C0001209F7AF82AE830208CAE6
:1007C7007524C37523F57522A87521411209AE7DDD
:1007D700027F011209CE7BFF7A0979101209697D20
:1007E700027F021209CE7BFF7A09791F120969126B
:1007F7000A0F7D027F021209CE7BFF7A09792D123B
:1008070009697D0B7F021209CEAF24AE23AD22AC5E
:1008170021752900752A021208587D027F011209E5
:10082700CE7BFF7A0979371209699000007D0A7F2C
:10083700011209CEAF82AE831208CA7F647E00120E
:10084700098EA3E5826416458370E2120A0F020738
:01085700D6CA
:100003000202ABE86480F8E933E83360110460F07E
:10001300ED33EC337009E8FCE9FDEAFEEBFF220463
:1000230060DED3EB9FEA9EE99DE8C2E78CF0C2F75E
:1000330095F0400CE8CCF8E9CDF9EACEFAEBCFFB2A
:1000430012027685D0F05804700320D5B3E804700B
:10005300075002B2D50202B592D5EC0460F7E4CCA6
:10006300C0E0C398F8603B94186008400DD0E0FBF3
:1000730002028DE4FBFAC9FC8028E830E406E4C9F7
:10008300FBE4CAFCE830E305E4C9CACBFCE8540747
:100093006010F8C3E913F9EA13FAEB13FBEC13FC52
:1000A300D8F130F52FC3E49CFCEF9BFFEE9AFEEDF5
:1000B30099FDD0E0FBEF4E4D4C701222DB030202A0
:1000C300B2EC2CFCEF33FFEE33FEED33FDED30E706
:1000D300EB02028DEF2BFFEE3AFEED39FDD0E0FB94
:1000E30050130BBB00030202B5ED13FDEE13FEEF3D
:0800F30013FFEC13FC02028D67
:1000FB00EC4D6011E8497017ED33EC3304600DE4FF
:10010B00FCFFFEFD22E933E8330470F80202AB1268
:10011B00027658046009E4CC248150062850090269
:10012B0002B52840030202B2C0E0EB4A7044B9802A
:10013B0006D0E0FB0202A1EF4E701CBD8008EBFF66
:10014B00EAFEE9FD80EBE98DF0A4FEE5F00201E4A7
:10015B00E9CDF9EAFEEBFFEF89F0A4FCE5F0CE89DF
:10016B00F0A42EFFE435F0CD89F0A42DFEE435F09C
:10017B008067EF4E7005BD80D780C3EF8BF0A4ACCA
:10018B00F0EE8BF0A42CFCE435F0F8EF8AF0A42C05
:10019B00E5F038FCE433CB8DF0A42CFCE5F03BF818
:1001AB00EE8AF0A42CFCE5F038F8E433CF89F0A408
:1001BB002CFCE5F038CF3400CE89F0A42FFFE5F00E
:1001CB003EFEE433C98DF0A42EFEE5F039CD8AF066
:1001DB00A42FFFE5F03EFEE43DFD33D0E0FB5007DE
:1001EB000BBB000F0202B5EC2CFCEF33FFEE33FE22
:0601FB00ED33FD02028D50
:1002010075F020800E75F010800575F0087D007E78
:10021100007F003392D530D5031204B3EC33401084
:10022100EF33FFEE33FEED33FDEC33FCD5F0ED2281
:0E023100E5F0247EA2D513CC92E7CDCEFF22BD
:10023F00EDD2E7CD33EC3392D524814006E4FFFEB7
:10024F00FDFC22FCE4CFCECDCC24E0501174FF8016
:10025F00EDC3CC13CCCD13CDCE13CECF13CF0470B3
:07026F00F030D5DE0204B3FC
:100616008F308E2F8D2E8C2DE4FFFE7D807C3FABA0
:1006260030AA2FA92EA82D1202DA7009AF30AE2FEC
:10063600AD2EAC2D22AF30AE2FAD2EAC2D1202C09A
:10064600FBAF34AE33AD32AC311202C0FFBF01088E
:10065600E4FFFE7D807C3F22EF64046022EB6404AD
:10066600601DBB0127E4FFFEFDFCAB34AA33A932B3
:10067600A8311202DA60084006E4FFFEFDFC22748F
:10068600FFF534F533F532F531020724E4F535F597
:1006960036FFFEFDFCAB30AA2FA92EA82D1202DADA
:1006A600504BAF34AE33AD32AC3112023F8E358F84
:1006B60036AC35AD36EC120206C8ECC8C9EDC9CA6F
:1006C600EECACBEFCBAF34AE33AD32AC311200064F
:1006D600E4FBFAF9F81202DA70A5AF30AE2FAD2EB0
:1006E600AC2D1203478F308E2F8D2E8C2DAF30AE52
:1006F6002FAD2EAC2D120515AB34AA33A932A83175
:100706001200FB1207658F348E338D328C31E5363D
:1007160030E00B1203478F348E338D328C31AF3479
:07072600AE33AD32AC31220D
:10027600E9D2E7C933E833F892D5EDD2E7CD33ECCE
:0702860033FC5002B2D52247
:10028D00EC30E7100FBF000C0EBE00080DBD0004D2
:10029D000BEB6014A2D5EB13FCED92E7FD2274FF7E
:1002AD00FCFDFEFF22E480F8A2D574FF13FC7D80D7
:0302BD00E480EFEB
:1002C000ED33EC33601004700FED547F7005740251
:0A02D00092E0227404220422E422CA
:1002DA0074F8CC6480CCC86480C8F582046043C3D7
:1002EA00EB9FF5F0EA9E42F0E99D42F0E89C45F06A
:1002FA0060305018E5825FFFE582F42B5582FB508F
:10030A00210ABA001D09B90019088016E5825BFBAB
:10031A00E582F42F5582FF50090EBE00050DBD007F
:10032A00010CC3EB9FF5F0EA9E42F0E99D42F0E82A
:0D033A009C45F06007CC4820E701B3EC22A1
:10034700ED33EC33600A047003BD8004ECB2E7FCC4
:010357002283
:10072D0033DA929E35B16011377FE5FE3921848928
:10073D003AAEC3FF3C1D955B3D6358473E75FDF0DA
:10074D003F3172183F800000C2D50202B50202ABE4
:10075D00BD80FA50F30202B2ED33EC330460F17B4D
:10076D003B7AAA79B8783F1200FBED33EC3392D582
:10077D00247B5011A2D570DB500BED448024045026
:10078D0004A2D580CEEFFBEEFAEDF9ECF812023FA4
:10079D00EFF582F404FC12020B12000AC0829007DE
:1007AD002D7409120407ED33CC33D0F092D525F01A
:0A07BD00A2D57001C313CC13FD2276
:1004E1003E9248DA3ECCCCCD3F2AAAAB4000000078
:1004F1003F8000003F9837F03FB504F33FD744FCFD
:100501003E3172173EB172173F0515913EDE5BD940
:10051100D2008002C200EDD2E7F8CD33EC33047093
:100521000BBD800592D50202B50202AB40FBD3148C
:1005310060F2F5F07C3FEE7A00C39496C8948B404C
:10054100230AC89469C8941A401A0AC89468C894BE
:100551001F40110AC8945AC89425400805F07A0032
:10056100CDC2E7CDC0F08C378D388E398F3AEA2372
:1005710023C0E024F1F582E43404F5831204D1129E
:10058100000AECC0E0EDC0E0EEC0E0EFC0E0120414
:10059100C1A837A938AA39AB3A120006D0E0FBD07E
:1005A100E0FAD0E0F9D0E0B2E7F812035B8C378DC6
:1005B100388E398F3A9004E174031203F8A837A9F1
:1005C10038AA39AB3A1200FBD0E0600F24FDF58266
:1005D100E43404F5831204D112000A8C378D388E6D
:1005E100398F3AD0E0C3947FFDE49400FC120206F7
:1005F1007B187A727931783F1200FBA837A938AAA3
:1006010039AB3A12000A30000B7BD97A5B79DE787C
:050611003E1200FB2277
:100358000202B5EC5D046005E8590470030202ABC3
:10036800120276580460F6EC4860F2EC7004FDFE68
:10037800FF22C860DB2481C85009C3986002500678
:100388000202B29850CAF582E9294B4A7005AB823D
:100398000202A175F0007C1A7880C3EF9BEE9AEDFB
:1003A80099400DC3EF9BFFEE9AFEED99FDE842F0F0
:1003B800DC23ACF0D0E0FFD0E0FED0E0FDAB822043
:1003C800E7101BEB60BAEC2CFCEF33FFEE33FEEDCD
:1003D80033FD02028DE803F830E705C0F075F00040
:1003E800EF2FFFEE33FEED33FD40B830E7C280AAB1
:1003F800C0E0EFFBEEFAEDF9ECF81200FBD0E0F507
:10040800F0EFFBEEFAEDF9ECF81204C1A3A3A3A3F5
:10041800E8C0E0E9C0E0EAC0E0EBC0E0C0F01200EC
:10042800FB1204D1A3A3A3A312000AD0F0D0E0FBCF
:0D043800D0E0FAD0E0F9D0E0F8D5F0D42201
:03000000020A1BD6
:0C0A1B00787FE4F6D8FD75813D0207C726
:10044500BB010689828A83E0225002E722BBFE02B5
:09045500E32289828A83E49322E8
:10045E00BC000BBE0029EF8DF084FFADF022E4CC82
:10046E00F875F008EF2FFFEE33FEEC33FCEE9DEC4B
:10047E00984005FCEE9DFE0FD5F0E9E4CEFD22ED91
:10048E00F8F5F0EE8420D21CFEADF075F008EF2FDB
:10049E00FFED33FD4007985006D5F0F222C398FDCC
:0504AE000FD5F0EA2269
:0E04B300C3E49FFFE49EFEE49DFDE49CFC225A
:1004C100E493FC740193FD740293FE740393FF2281
:1004D100E493F8740193F9740293FA740393FB2281
:00000001FF
