:10092B00434F4D505554455220454E47494E454532
:10093B0052494E4720544543484E4F4C4F47592040
:10094B002D2048434D4320554E495645525349544B
:10095B0059204F4620544543484E4F4C4F47592042
:10096B00414E4420454455434154494F4E2E20009F
:040AC30002360000F7
:100A0F00E4FDFCC3ED9FEC9E5015E4FBFA0BBB001D
:0F0A1F00010AEB647B4A70F50DBD00010C80E409
:010A2E0022A5
:0E0A7D00D2A27F017E00120A0FC2A2020A0F4F
:0D09C100E9C4540FFF1209CE120A7DAF01E8
:1009CE00EF1392A4EFC3131392A5EF1313543F1317
:0C09DE0092A6EF131313541F1392A722CC
:0C0A8B00A907C2A1D2A01209C1020A7D75
:0C0A9700A907C2A1C2A01209C1020A7D79
:050003007F01020A97D5
:050AAF007F0C020A9714
:050AB4007F08020A9713
:100A2F00C2A0C2A17F147E00120A0F7F02120A9782
:100A3F007F28120A97120AAF7F06120A9702000345
:100A4F008D0BEF24FE600A047010E50B14448080B8
:0B0A5F0005E50B1444C0FF120A9722AB
:050AB9007F0F020A9707
:050ABE007F0E020A9703
:1009EA008B338A348935AB33AA34A9351204506063
:1009FA00130535E5357002053414F9120450FF1257
:050A0A000A8B80E222CE
:04097B00AB07AA0616
:10097F00E4F51B7C007D0AAF03AE02120469ED247F
:10098F0030FFAE1B051B740B2EF8A6077C007D0AEB
:10099F00AF03AE02120469AA06AB07EB4A70D4E5A7
:1009AF001B600E151B740B251BF8E6FF120A8B80BC
:0109BF00EE49
:0109C0002214
:08085E008F2E8E2D8D2C8C2BAA
:1008660012024A8E318F32AC2FAD30E41202118F54
:10087600288E278D268C257F007E007D207C4112C8
:100886000621C004C005C006C007AC31AD32E41273
:100896000211A804A905AA06AB07AF2EAE2DAD2CF2
:1008A600AC2B120011D003D002D001D000120106E9
:1008B60012024A8F828E83AF32AE3112097B7F2EAF
:0A08C600120A8BAF82AE8302097B99
:0C0AA300758905D28C758CFF758AFF22C6
:040AC80075A8822269
:03000B00020A6A7C
:100A6A00C0E00537E53770020536758CFF758AFFD9
:030A7A00D0E03297
:1008D000E4F509F50A120AA3120AC8120A2F7D01CB
:1008E0007F02120A4FAF37AE3612097B7D017F01BE
:1008F000120A4F850A09E4F508AF090509EF9009C6
:100900002B93FF120A8BE509B44F03E4F5090508A0
:10091000E508C3941040E2AF0A050AEFB44F03E4C0
:0B092000F50A7F647E00120A0F80B30E
:10000E000202B6E86480F8E933E83360110460F068
:10001E00ED33EC337009E8FCE9FDEAFEEBFF220458
:10002E0060DED3EB9FEA9EE99DE8C2E78CF0C2F753
:10003E0095F0400CE8CCF8E9CDF9EACEFAEBCFFB1F
:10004E0012028185D0F05804700320D5B3E80470F5
:10005E00075002B2D50202C092D5EC0460F7E4CC90
:10006E00C0E0C398F8603B94186008400DD0E0FBE8
:10007E00020298E4FBFAC9FC8028E830E406E4C9E1
:10008E00FBE4CAFCE830E305E4C9CACBFCE854073C
:10009E006010F8C3E913F9EA13FAEB13FBEC13FC47
:1000AE00D8F130F52FC3E49CFCEF9BFFEE9AFEEDEA
:1000BE0099FDD0E0FBEF4E4D4C701222DB03020295
:1000CE00BDEC2CFCEF33FFEE33FEED33FDED30E7F0
:1000DE00EB020298EF2BFFEE3AFEED39FDD0E0FB7E
:1000EE0050130BBB00030202C0ED13FDEE13FEEF27
:0800FE0013FFEC13FC02029851
:10010600EC4D6011E8497017ED33EC3304600DE4F3
:10011600FCFFFEFD22E933E8330470F80202B61252
:10012600028158046009E4CC248150062850090253
:1001360002C02840030202BDC0E0EB4A7044B98009
:1001460006D0E0FB0202ACEF4E701CBD8008EBFF50
:10015600EAFEE9FD80EBE98DF0A4FEE5F00201EF91
:10016600E9CDF9EAFEEBFFEF89F0A4FCE5F0CE89D4
:10017600F0A42EFFE435F0CD89F0A42DFEE435F091
:100186008067EF4E7005BD80D780C3EF8BF0A4ACBF
:10019600F0EE8BF0A42CFCE435F0F8EF8AF0A42CFA
:1001A600E5F038FCE433CB8DF0A42CFCE5F03BF80D
:1001B600EE8AF0A42CFCE5F038F8E433CF89F0A4FD
:1001C6002CFCE5F038CF3400CE89F0A42FFFE5F003
:1001D6003EFEE433C98DF0A42EFEE5F039CD8AF05B
:1001E600A42FFFE5F03EFEE43DFD33D0E0FB5007D3
:1001F6000BBB000F0202C0EC2CFCEF33FFEE33FE0C
:06020600ED33FD02029839
:10020C0075F020800E75F010800575F0087D007E6D
:10021C00007F003392D530D5031204BEEC3340106E
:10022C00EF33FFEE33FEED33FDEC33FCD5F0ED2276
:0E023C00E5F0247EA2D513CC92E7CDCEFF22B2
:10024A00EDD2E7CD33EC3392D524814006E4FFFEAC
:10025A00FDFC22FCE4CFCECDCC24E0501174FF800B
:10026A00EDC3CC13CCCD13CDCE13CECF13CF0470A8
:07027A00F030D5DE0204BEE6
:100621008F248E238D228C21E4FFFE7D807C3FABC5
:1006310024AA23A922A8211202E57009AF24AE231E
:10064100AD22AC2122AF24AE23AD22AC211202CBCC
:10065100FBAF28AE27AD26AC251202CBFFBF0108A8
:10066100E4FFFE7D807C3F22EF64046022EB6404A2
:10067100601DBB0127E4FFFEFDFCAB28AA27A926CC
:10068100A8251202E560084006E4FFFEFDFC227485
:10069100FFF528F527F526F52502072FE4F529F5BD
:1006A1002AFFFEFDFCAB24AA23A922A8211202E500
:1006B100504BAF28AE27AD26AC2512024A8E298FAA
:1006C1002AAC29AD2AEC120211C8ECC8C9EDC9CA7D
:1006D100EECACBEFCBAF28AE27AD26AC2512001169
:1006E100E4FBFAF9F81202E570A5AF24AE23AD22BE
:1006F100AC211203528F248E238D228C21AF24AE84
:1007010023AD22AC21120520AB28AA27A926A825B2
:100711001201061207708F288E278D268C25E52A57
:1007210030E00B1203528F288E278D268C25AF289F
:07073100AE27AD26AC252226
:10028100E9D2E7C933E833F892D5EDD2E7CD33ECC3
:0702910033FC5002B2D5223C
:10029800EC30E7100FBF000C0EBE00080DBD0004C7
:1002A8000BEB6014A2D5EB13FCED92E7FD2274FF73
:1002B800FCFDFEFF22E480F8A2D574FF13FC7D80CC
:0302C800E480EFE0
:1002CB00ED33EC33601004700FED547F7005740246
:0A02DB0092E0227404220422E422BF
:1002E50074F8CC6480CCC86480C8F582046043C3CC
:1002F500EB9FF5F0EA9E42F0E99D42F0E89C45F05F
:1003050060305018E5825FFFE582F42B5582FB5083
:10031500210ABA001D09B90019088016E5825BFBA0
:10032500E582F42F5582FF50090EBE00050DBD0074
:10033500010CC3EB9FF5F0EA9E42F0E99D42F0E81F
:0D0345009C45F06007CC4820E701B3EC2296
:10035200ED33EC33600A047003BD8004ECB2E7FCB9
:010362002278
:1007380033DA929E35B16011377FE5FE392184891D
:100748003AAEC3FF3C1D955B3D6358473E75FDF0CF
:100758003F3172183F800000C2D50202C00202B6C3
:10076800BD80FA50F30202BDED33EC330460F17B37
:100778003B7AAA79B8783F120106ED33EC3392D56B
:10078800247B5011A2D570DB500BED44802404501B
:1007980004A2D580CEEFFBEEFAEDF9ECF812024A8E
:1007A800EFF582F404FC120216120015C0829007BD
:1007B800387409120412ED33CC33D0F092D525F0F9
:0A07C800A2D57001C313CC13FD226B
:1004EC003E9248DA3ECCCCCD3F2AAAAB400000006D
:1004FC003F8000003F9837F03FB504F33FD744FCF2
:10050C003E3172173EB172173F0515913EDE5BD935
:10051C00D2008002C200EDD2E7F8CD33EC33047088
:10052C000BBD800592D50202C00202B640FBD3146B
:10053C0060F2F5F07C3FEE7A00C39496C8948B4041
:10054C00230AC89469C8941A401A0AC89468C894B3
:10055C001F40110AC8945AC89425400805F07A0027
:10056C00CDC2E7CDC0F08C1C8D1D8E1E8F1FEA23D3
:10057C0023C0E024FCF582E43404F5831204DC127D
:10058C000015ECC0E0EDC0E0EEC0E0EFC0E01204FE
:10059C00CCA81CA91DAA1EAB1F120011D0E0FBD0C9
:1005AC00E0FAD0E0F9D0E0B2E7F81203668C1C8DCB
:1005BC001D8E1E8F1F9004EC7403120403A81CA93B
:1005CC001DAA1EAB1F120106D0E0600F2408F58295
:1005DC00E43405F5831204DC1200158C1C8D1D8E81
:1005EC001E8F1FD0E0C3947FFDE49400FC12021117
:1005FC007B187A727931783F120106A81CA91DAAC2
:10060C001EAB1F12001530000B7BD97A5B79DE789C
:05061C003E1201062260
:100363000202C0EC5D046005E8590470030202B6A2
:10037300120281580460F6EC4860F2EC7004FDFE52
:10038300FF22C860DB2481C85009C398600250066D
:100393000202BD9850CAF582E9294B4A7005AB8227
:1003A3000202AC75F0007C1A7880C3EF9BEE9AEDE5
:1003B30099400DC3EF9BFFEE9AFEED99FDE842F0E5
:1003C300DC23ACF0D0E0FFD0E0FED0E0FDAB822038
:1003D300E7101BEB60BAEC2CFCEF33FFEE33FEEDC2
:1003E30033FD020298E803F830E705C0F075F0002A
:1003F300EF2FFFEE33FEED33FD40B830E7C280AAA6
:10040300C0E0EFFBEEFAEDF9ECF8120106D0E0F5EF
:10041300F0EFFBEEFAEDF9ECF81204CCA3A3A3A3DF
:10042300E8C0E0E9C0E0EAC0E0EBC0E0C0F01201E0
:10043300061204DCA3A3A3A3120015D0F0D0E0FBA3
:0D044300D0E0FAD0E0F9D0E0F8D5F0D422F6
:030000000207D222
:0C07D200787FE4F6D8FD75813702081925
:10045000BB010689828A83E0225002E722BBFE02AA
:09046000E32289828A83E49322DD
:10046900BC000BBE0029EF8DF084FFADF022E4CC77
:10047900F875F008EF2FFFEE33FEEC33FCEE9DEC40
:10048900984005FCEE9DFE0FD5F0E9E4CEFD22ED86
:10049900F8F5F0EE8420D21CFEADF075F008EF2FD0
:1004A900FFED33FD4007985006D5F0F222C398FDC1
:0504B9000FD5F0EA225E
:0E04BE00C3E49FFFE49EFEE49DFDE49CFC224F
:1004CC00E493FC740193FD740293FE740393FF2276
:1004DC00E493F8740193F9740293FA740393FB2276
:1007DE000208D0E493A3F8E493A34003F68001F259
:1007EE0008DFF48029E493A3F85407240CC8C3331C
:1007FE00C4540F4420C8834004F456800146F6DFEB
:10080E00E4800B0102040810204080900AC3E47EAD
:10081E00019360BCA3FF543F30E509541FFEE493DF
:10082E00A360010ECF54C025E060A840B8E493A3A6
:10083E00FAE493A3F8E493A3C8C582C8CAC583CAD1
:10084E00F0A3C8C582C8CAC583CADFE9DEE780BE89
:010AC700002E
:00000001FF
