:100B4900456E746572206368617261637465723A97
:100B5900000000000000000000000000000000008C
:010B6900008B
:0E0BC5000C323132333435363738392A30238A
:100B6A00E4FDFCC3ED9FEC9E5015E4FBFA0BBB00C1
:0F0B7A00010AEB647B4A70F50DBD00010C80E4AD
:010B89002249
:0E0BD400D2A27F017E00120B6AC2A2020B6A3F
:0D0AFB00E9C4540FFF120B08120BD4AF0119
:100B0800EF1392A4EFC3131392A5EF1313543F13DB
:0C0B180092A6EF131313541F1392A72290
:0C0BE200A907C2A1D2A0120AFB020BD48A
:0C0BEE00A907C2A1C2A0120AFB020BD48E
:050BFA007F01020BEE7B
:050BFF007F0C020BEE6B
:050C04007F08020BEE69
:100B8A00C2A0C2A17F147E00120B6A7F02120BEE72
:100B9A007F28120BEE120BFF7F06120BEE020BFAE6
:100BAA008D1AEF24FE600A047010E51A144480803E
:0B0BBA0005E51A1444C0FF120BEE22E8
:050C09007F0F020BEE5D
:050C0E007F0E020BEE59
:100B24008B1A8A1B891CAB1AAA1BA91C12053B60D1
:100B340013051CE51C7002051B14F912053BFF127A
:050B44000BE280E2223B
:040A5A00AB07AA0636
:100A5E00E4F5317C007D0AAF03AE02120554ED249D
:100A6E0030FFAE31053174212EF8A6077C007D0AC9
:100A7E00AF03AE02120554AA06AB07EB4A70D4E5DB
:100A8E0031600E153174212531F8E6FF120BE2802C
:010A9E00EE69
:010A9F002234
:0809E8008F4B8E4A8D498C48AB
:1009F00012023F8E4E8F4FAC4CAD4DE41202068F6B
:100A0000458E448D438C427F007E007D207C4112C8
:100A1000070CC004C005C006C007AC4EAD4FE412C1
:100A20000206A804A905AA06AB07AF4BAE4AAD491A
:100A3000AC48120006D003D002D001D0001200FB57
:100A400012023F8F828E83AF4FAE4E120A5A7F2E14
:0A0A5000120BE2AF82AE83020A5AD5
:100AD00074FFFFFEC294C295C296C297D291D29281
:100AE000D293209305E4FEFF80102092067E007FC3
:0A0AF0000180072091047E007F02C0
:010AFA0022D9
:100AA000D294D295D296D297C291C292C2932097F5
:100AB00005E4FEFF80192096067E007F018010204D
:0F0AC00095067E007F0280072094047E007F034E
:010ACF002204
:10082300E4F508F509780A7C00FD7BFF7A0B795A19
:10083300FE7F10120515120B8A7BFF7A0B79491282
:100843000B24120C09120AD0AD07AC06EDF47002AA
:10085300ECF46059E509640F45087025750A7F7F3C
:1008630001FE740B2FF8E6FB740A2FF8A6030FBFE3
:1008730000010EEF640E4E70E9E5091509700215CB
:1008830008120AA0EF75F003A424322DF8E6FF0541
:1008930009E5097002050814240AF8A6077D017FFB
:1008A30002120BAA7B007A00790A120B24E50904D1
:0F08B300FD7F02120BAA7F647E00120B6A808603
:100003000202ABE86480F8E933E83360110460F07E
:10001300ED33EC337009E8FCE9FDEAFEEBFF220463
:1000230060DED3EB9FEA9EE99DE8C2E78CF0C2F75E
:1000330095F0400CE8CCF8E9CDF9EACEFAEBCFFB2A
:1000430012027685D0F05804700320D5B3E804700B
:10005300075002B2D50202B592D5EC0460F7E4CCA6
:10006300C0E0C398F8603B94186008400DD0E0FBF3
:1000730002028DE4FBFAC9FC8028E830E406E4C9F7
:10008300FBE4CAFCE830E305E4C9CACBFCE8540747
:100093006010F8C3E913F9EA13FAEB13FBEC13FC52
:1000A300D8F130F52FC3E49CFCEF9BFFEE9AFEEDF5
:1000B30099FDD0E0FBEF4E4D4C701222DB030202A0
:1000C300B2EC2CFCEF33FFEE33FEED33FDED30E706
:1000D300EB02028DEF2BFFEE3AFEED39FDD0E0FB94
:1000E30050130BBB00030202B5ED13FDEE13FEEF3D
:0800F30013FFEC13FC02028D67
:1000FB00EC4D6011E8497017ED33EC3304600DE4FF
:10010B00FCFFFEFD22E933E8330470F80202AB1268
:10011B00027658046009E4CC248150062850090269
:10012B0002B52840030202B2C0E0EB4A7044B9802A
:10013B0006D0E0FB0202A1EF4E701CBD8008EBFF66
:10014B00EAFEE9FD80EBE98DF0A4FEE5F00201E4A7
:10015B00E9CDF9EAFEEBFFEF89F0A4FCE5F0CE89DF
:10016B00F0A42EFFE435F0CD89F0A42DFEE435F09C
:10017B008067EF4E7005BD80D780C3EF8BF0A4ACCA
:10018B00F0EE8BF0A42CFCE435F0F8EF8AF0A42C05
:10019B00E5F038FCE433CB8DF0A42CFCE5F03BF818
:1001AB00EE8AF0A42CFCE5F038F8E433CF89F0A408
:1001BB002CFCE5F038CF3400CE89F0A42FFFE5F00E
:1001CB003EFEE433C98DF0A42EFEE5F039CD8AF066
:1001DB00A42FFFE5F03EFEE43DFD33D0E0FB5007DE
:1001EB000BBB000F0202B5EC2CFCEF33FFEE33FE22
:0601FB00ED33FD02028D50
:1002010075F020800E75F010800575F0087D007E78
:10021100007F003392D530D5031205A9EC3340108D
:10022100EF33FFEE33FEED33FDEC33FCD5F0ED2281
:0E023100E5F0247EA2D513CC92E7CDCEFF22BD
:10023F00EDD2E7CD33EC3392D524814006E4FFFEB7
:10024F00FDFC22FCE4CFCECDCC24E0501174FF8016
:10025F00EDC3CC13CCCD13CDCE13CECF13CF0470B3
:07026F00F030D5DE0205A905
:10070C008F418E408D3F8C3EE4FFFE7D807C3FAB65
:10071C0041AA40A93FA83E1202DA7009AF41AE408F
:10072C00AD3FAC3E22AF41AE40AD3FAC3E1202C03D
:10073C00FBAF45AE44AD43AC421202C0FFBF010853
:10074C00E4FFFE7D807C3F22EF64046022EB6404B6
:10075C00601DBB0127E4FFFEFDFCAB45AA44A94389
:10076C00A8421202DA60084006E4FFFEFDFC227487
:10077C00FFF545F544F543F54202081AE4F546F554
:10078C0047FFFEFDFCAB41AA40A93FA83E1202DA8E
:10079C00504BAF45AE44AD43AC4212023F8E468F38
:1007AC0047AC46AD47EC120206C8ECC8C9EDC9CA45
:1007BC00EECACBEFCBAF45AE44AD43AC4212000614
:1007CC00E4FBFAF9F81202DA70A5AF41AE40AD3F86
:1007DC00AC3E1203478F418E408D3F8C3EAF41AEF5
:1007EC0040AD3FAC3E12060BAB45AA44A943A84210
:1007FC001200FB1208FA8F458E448D438C42E5475C
:10080C0030E00B1203478F458E448D438C42AF452D
:07081C00AE44AD43AC4222E3
:10027600E9D2E7C933E833F892D5EDD2E7CD33ECCE
:0702860033FC5002B2D52247
:10028D00EC30E7100FBF000C0EBE00080DBD0004D2
:10029D000BEB6014A2D5EB13FCED92E7FD2274FF7E
:1002AD00FCFDFEFF22E480F8A2D574FF13FC7D80D7
:0302BD00E480EFEB
:1002C000ED33EC33601004700FED547F7005740251
:0A02D00092E0227404220422E422CA
:1002DA0074F8CC6480CCC86480C8F582046043C3D7
:1002EA00EB9FF5F0EA9E42F0E99D42F0E89C45F06A
:1002FA0060305018E5825FFFE582F42B5582FB508F
:10030A00210ABA001D09B90019088016E5825BFBAB
:10031A00E582F42F5582FF50090EBE00050DBD007F
:10032A00010CC3EB9FF5F0EA9E42F0E99D42F0E82A
:0D033A009C45F06007CC4820E701B3EC22A1
:10034700ED33EC33600A047003BD8004ECB2E7FCC4
:010357002283
:1008C20033DA929E35B16011377FE5FE3921848992
:1008D2003AAEC3FF3C1D955B3D6358473E75FDF044
:1008E2003F3172183F800000C2D50202B50202AB4E
:1008F200BD80FA50F30202B2ED33EC330460F17BB7
:100902003B7AAA79B8783F1200FBED33EC3392D5EB
:10091200247B5011A2D570DB500BED44802404508F
:1009220004A2D580CEEFFBEEFAEDF9ECF812023F0D
:10093200EFF582F404FC12020B12000AC082900846
:10094200C27409120407ED33CC33D0F092D525F0EE
:0A095200A2D57001C313CC13FD22DF
:1005D7003E9248DA3ECCCCCD3F2AAAAB4000000081
:1005E7003F8000003F9837F03FB504F33FD744FC06
:1005F7003E3172173EB172173F0515913EDE5BD94A
:10060700D2008002C200EDD2E7F8CD33EC3304709C
:100617000BBD800592D50202B50202AB40FBD31495
:1006270060F2F5F07C3FEE7A00C39496C8948B4055
:10063700230AC89469C8941A401A0AC89468C894C7
:100647001F40110AC8945AC89425400805F07A003B
:10065700CDC2E7CDC0F08C508D518E528F53EA2317
:1006670023C0E024E7F582E43405F5831205C712B9
:10067700000AECC0E0EDC0E0EEC0E0EFC0E012051C
:10068700B7A850A951AA52AB53120006D0E0FBD02D
:10069700E0FAD0E0F9D0E0B2E7F812035B8C508DB6
:1006A700518E528F539005D774031203F8A850A99F
:1006B70051AA52AB531200FBD0E0600F24F3F5822E
:1006C700E43405F5831205C712000A8C508D518E4C
:1006D700528F53D0E0C3947FFDE49400FC120206CE
:1006E7007B187A727931783F1200FBA850A951AA7A
:1006F70052AB5312000A30000B7BD97A5B79DE7854
:050707003E1200FB2280
:100358000202B5EC5D046005E8590470030202ABC3
:10036800120276580460F6EC4860F2EC7004FDFE68
:10037800FF22C860DB2481C85009C3986002500678
:100388000202B29850CAF582E9294B4A7005AB823D
:100398000202A175F0007C1A7880C3EF9BEE9AEDFB
:1003A80099400DC3EF9BFFEE9AFEED99FDE842F0F0
:1003B800DC23ACF0D0E0FFD0E0FED0E0FDAB822043
:1003C800E7101BEB60BAEC2CFCEF33FFEE33FEEDCD
:1003D80033FD02028DE803F830E705C0F075F00040
:1003E800EF2FFFEE33FEED33FD40B830E7C280AAB1
:1003F800C0E0EFFBEEFAEDF9ECF81200FBD0E0F507
:10040800F0EFFBEEFAEDF9ECF81205B7A3A3A3A3FE
:10041800E8C0E0E9C0E0EAC0E0EBC0E0C0F01200EC
:10042800FB1205C7A3A3A3A312000AD0F0D0E0FBD8
:0D043800D0E0FAD0E0F9D0E0F8D5F0D42201
:0300000002095C96
:0C095C00787FE4F6D8FD7581530209A3F2
:10044500E709F608DFFA8046E709F208DFFA803E99
:1004550088828C83E709F0A3DFFA8032E309F60886
:10046500DFFA8078E309F208DFFA807088828C83EE
:10047500E309F0A3DFFA806489828A83E0A3F608A2
:10048500DFFA805889828A83E0A3F208DFFA804C7C
:1004950080D280FA80C680D4806980F28033801053
:1004A50080A680EA809A80A880DA80E280CA8033BC
:1004B50089828A83ECFAE493A3C8C582C8CCC58334
:1004C500CCF0A3C8C582C8CCC583CCDFE9DEE78004
:1004D5000D89828A83E493A3F608DFF9ECFAA9F083
:1004E500EDFB2289828A83ECFAE0A3C8C582C8CCD9
:1004F500C583CCF0A3C8C582C8CCC583CCDFEADEF2
:10050500E880DB89828A83E493A3F208DFF980CC53
:1005150088F0EF60010E4E60C388F0ED2402B4044C
:100525000050B9F582EB2402B4040050AF232345F3
:060535008223900495737F
:10053B00BB010689828A83E0225002E722BBFE02BE
:09054B00E32289828A83E49322F1
:10055400BC000BBE0029EF8DF084FFADF022E4CC8B
:10056400F875F008EF2FFFEE33FEEC33FCEE9DEC54
:10057400984005FCEE9DFE0FD5F0E9E4CEFD22ED9A
:10058400F8F5F0EE8420D21CFEADF075F008EF2FE4
:10059400FFED33FD4007985006D5F0F222C398FDD5
:0505A4000FD5F0EA2272
:0E05A900C3E49FFFE49EFEE49DFDE49CFC2263
:1005B700E493FC740193FD740293FE740393FF228A
:1005C700E493F8740193F9740293FA740393FB228A
:10096800020823E493A3F8E493A34003F68001F27A
:1009780008DFF48029E493A3F85407240CC8C33390
:10098800C4540F4420C8834004F456800146F6DF5F
:10099800E4800B0102040810204080900BC5E47E1F
:1009A800019360BCA3FF543F30E509541FFEE49354
:1009B800A360010ECF54C025E060A840B8E493A31B
:1009C800FAE493A3F8E493A3C8C582C8CAC583CA46
:1009D800F0A3C8C582C8CAC583CADFE9DEE780BEFE
:010BD3000021
:00000001FF
