:100198000A10C0F9A4B0999282F880900608080362
:0801A8004621060E020E0000C4
:1001B100E4FDFCC3ED9FEE6480F8EC648098500789
:0701C1000DBD00010C80ECF4
:0101C8002214
:0600030075A884D28A22D8
:030013000201C91E
:1001C900C2AFB291309108750E27750F0F80067571
:0801D9000E00750F00D2AF32D9
:1001E100758901C2A9758CE8758A90C28DD28C304F
:0501F1008DFDC28C220F
:04012D008E1A8F1B7C
:100131007B01E4FAAE1AAF1B7C007D0A1200A28D8E
:100141001CAE1AAF1B7C007D0A1200A28E1A8F1BF7
:100151008BA07410251CF8E6F5801201E1EB25E077
:05016100FB0ABA04CF07
:010166002276
:10016700C291120003900000AF0FAE0E12012DA333
:10017700E5826414458370F0B29030910AE50F155B
:100187000F70E2150E80DE050FE50F70D8050E80A3
:01019700D493
:03000000020016E5
:0C001600787FE4F6D8FD75811C02005DC7
:1000A200C2D5EC30E709B2D5E4C39DFDE49CFCEE79
:1000B20030E715B2D5E4C39FFFE49EFE1200D8C319
:1000C200E49DFDE49CFC80031200D830D507C3E414
:0600D2009FFFE49EFE22E8
:10002200020167E493A3F8E493A34003F68001F28C
:1000320008DFF48029E493A3F85407240CC8C333DF
:10004200C4540F4420C8834004F456800146F6DFAE
:10005200E4800B0102040810204080900198E47EA5
:10006200019360BCA3FF543F30E509541FFEE493A3
:10007200A360010ECF54C025E060A840B8E493A36A
:10008200FAE493A3F8E493A3C8C582C8CAC583CA95
:10009200F0A3C8C582C8CAC583CADFE9DEE780BE4D
:0101B000004E
:1000D800BC000BBE0029EF8DF084FFADF022E4CC0C
:1000E800F875F008EF2FFFEE33FEEC33FCEE9DECD5
:1000F800984005FCEE9DFE0FD5F0E9E4CEFD22ED1B
:10010800F8F5F0EE8420D21CFEADF075F008EF2F64
:10011800FFED33FD4007985006D5F0F222C398FD55
:050128000FD5F0EA22F2
:00000001FF
