:100167000A10C0F9A4B0999282F880900608080393
:080177004621060E020E0000F5
:10018000E4FDFCC3ED9FEE6480F8EC6480985007BA
:070190000DBD00010C80EC25
:010197002245
:0601B10075A881D288222E
:030003000201985F
:0D019800C0E0050FE50F7002050ED0E0324B
:04011D008E1A8F1B8C
:10012100751C01E4FBFAAE1AAF1B7C007D0A1200BC
:10013100928D1DAE1AAF1B7C007D0A1200928E1AA1
:100141008F1B851CA07410251DF8E6F5807FF47EB9
:1001510001120180E51C25E0F51C0BBB00010AEB37
:0501610064044A70C1B6
:010166002276
:0C01A5001201B1AF0FAE0E12011D80F769
:03000000020006F5
:0C000600787FE4F6D8FD75811D02004DE6
:10009200C2D5EC30E709B2D5E4C39DFDE49CFCEE89
:1000A20030E715B2D5E4C39FFFE49EFE1200C8C339
:1000B200E49DFDE49CFC80031200C830D507C3E434
:0600C2009FFFE49EFE22F8
:100012000201A5E493A3F8E493A34003F68001F25E
:1000220008DFF48029E493A3F85407240CC8C333EF
:10003200C4540F4420C8834004F456800146F6DFBE
:10004200E4800B0102040810204080900167E47EE6
:10005200019360BCA3FF543F30E509541FFEE493B3
:10006200A360010ECF54C025E060A840B8E493A37A
:10007200FAE493A3F8E493A3C8C582C8CAC583CAA5
:10008200F0A3C8C582C8CAC583CADFE9DEE780BE5D
:01017F00007F
:1000C800BC000BBE0029EF8DF084FFADF022E4CC1C
:1000D800F875F008EF2FFFEE33FEEC33FCEE9DECE5
:1000E800984005FCEE9DFE0FD5F0E9E4CEFD22ED2B
:1000F800F8F5F0EE8420D21CFEADF075F008EF2F75
:10010800FFED33FD4007985006D5F0F222C398FD65
:050118000FD5F0EA2202
:00000001FF
