:080003008F0D8E0C8D0B8C0A91
:10000B00E4F511F510F50FF50EAF0DAE0CAD0BAC15
:10001B000AAB11AA10A90FA80EC312006D5017E559
:10002B00112401F511E43510F510E4350FF50FE44B
:06003B00350EF50E80D326
:01004100229C
:10004200E4F508F509C3E509940AE508648094809B
:1000520050180509E5097002050814F5A07F107E05
:0A006200277D007C0012000380DB04
:01006C002271
:0300000002007E7D
:0C007E00787FE4F6D8FD75811102004285
:10006D00EB9FF5F0EA9E42F0E99D42F0E89C45F0E9
:01007D002260
:00000001FF
