:1001E0000A0EC0F9A4B0999282F88090060808031C
:0401F0004621060E90
:0401C400F8E6F580E4
:1001C800E4FDFCC3ED9FEE6480F8EC648098500772
:0701D8000DBD00010C80ECDD
:0101DF0022FD
:10000300E4F518F519E4F51AF51BE4F51EF51FE4FC
:10001300F51CF51DE4F520F521E4F522F523E4FBB9
:10002300FA900000752400752532759001AF827433
:100033000E2FF8E6F5807F327E001201C87590021C
:10004300740E2B1201C4759004740E25231201C47F
:10005300759008740E25211201C4759010740E2535
:100063001D1201C4759020740E251F1201C47590D2
:1000730040740E251B1201C4759080740E2519124D
:1000830001C4E525152570021524D3E5259400E563
:1000930024648094805093A3E582640A458370842A
:1000A3000BBB00010AEB640A4A6003020024052328
:1000B300E52370020522C3940AE5226480948050EC
:1000C300030200210521E52170020520C3940AE5FE
:1000D3002064809480500302001C051DE51D7002FE
:1000E300051CC3940AE51C64809480500302001726
:1000F300051FE51F7002051EC3940AE51E64809464
:10010300805003020012051BE51B7002051AC394FD
:100113000AE51A64809480500302000D0519E5195D
:1001230070020518C3940AE5186480948050030292
:050133000008020003BA
:03000000020138C2
:0C013800787FE4F6D8FD75812502017F78
:10014400020003E493A3F8E493A34003F68001F2CE
:1001540008DFF48029E493A3F85407240CC8C333BC
:10016400C4540F4420C8834004F456800146F6DF8B
:10017400E4800B01020408102040809001E0E47E3A
:10018400019360BCA3FF543F30E509541FFEE49380
:10019400A360010ECF54C025E060A840B8E493A347
:1001A400FAE493A3F8E493A3C8C582C8CAC583CA72
:1001B400F0A3C8C582C8CAC583CADFE9DEE780BE2A
:0101F400000A
:00000001FF
