:100122001008C0F9A4B0999282F880900803462181
:02013200068E37
:10008F0074FFFFFEC297C296C295C294D293D292CA
:10009F00D291D290209005E4FEFF80192091067E28
:1000AF00007F0180102092067E007F028007209340
:0500BF00047E007F0338
:0100C4002219
:1000C500D297D296D295D294C293C292C291C2903F
:1000D500209405E4FEFF80192095067E007F0180AF
:1000E500102096067E007F0280072097047E007F01
:0100F5000307
:0100F60022E7
:1000F70012008FAD07AC06EDF47002ECF460F1125C
:1001070000C5EF25E025E024082DF8E6F5A012004C
:0B0117008FEFF47002EEF460D780F36D
:03000000020003F8
:0C000300787FE4F6D8FD75811702004AF2
:10000F000200F7E493A3F8E493A34003F68001F210
:10001F0008DFF48029E493A3F85407240CC8C333F2
:10002F00C4540F4420C8834004F456800146F6DFC1
:10003F00E4800B0102040810204080900122E47E2E
:10004F00019360BCA3FF543F30E509541FFEE493B6
:10005F00A360010ECF54C025E060A840B8E493A37D
:10006F00FAE493A3F8E493A3C8C582C8CAC583CAA8
:10007F00F0A3C8C582C8CAC583CADFE9DEE780BE60
:0101340000CA
:00000001FF
