:1000FA000A0EC0F9A4B0999282F880900608080303
:04010A004621060E76
:0900D9002BF8E6F5A07F007E651E
:1000E200E4FDFCC3ED9FEE6480F8EC648098500759
:0700F2000DBD00010C80ECC4
:0100F90022E4
:10008F007901E4FBFAE9D39408400279018990746D
:10009F000E1200D9E925E0F90BBB00010AEB640A47
:1000AF004A70E2E4FAFBD3EB9405EA648094805043
:1000BF00D1E9940840027901899074081200D9E9B6
:0A00CF0025E0F90BBB00010A80DCFC
:03000000020003F8
:0C000300787FE4F6D8FD75811702004AF2
:10000F0002008FE493A3F8E493A34003F68001F278
:10001F0008DFF48029E493A3F85407240CC8C333F2
:10002F00C4540F4420C8834004F456800146F6DFC1
:10003F00E4800B01020408102040809000FAE47E57
:10004F00019360BCA3FF543F30E509541FFEE493B6
:10005F00A360010ECF54C025E060A840B8E493A37D
:10006F00FAE493A3F8E493A3C8C582C8CAC583CAA8
:10007F00F0A3C8C582C8CAC583CADFE9DEE780BE60
:01010E0000F0
:00000001FF
