:1009C50054203D20004D4541535552494E47202E58
:0309D5002E2E00C3
:10095000E4FDFCC3ED9FEC9E5015E4FBFA0BBB00DD
:0F096000010AEB647B4A70F50DBD00010C80E4C9
:01096F002265
:0E09E800D2827F017E00120950C282020950A5
:0D090200E9C4540FFF12090F1209E8AF01FC
:10090F00EF139284EFC313139285EF1313543F1316
:0C091F009286EF131313541F13928722CB
:0409D800842430FF44
:0C09DC00A907C281D2801209020209E8BA
:0C09F600A907C281C2801209020209E8B0
:050003007F010209F677
:050A1A007F0C0209F64B
:050A1F007F080209F64A
:10097000C280C2817F147E001209507F021209F6E4
:100980007F281209F6120A1A7F061209F6020003DE
:100990008D1AEF24FE600A047010E51A144480805A
:0B09A00005E51A1444C0FF1209F622FE
:050A24007F0F0209F63E
:050A29007F0E0209F63A
:10092B008B1C8A1D891EAB1CAA1DA91E12045060AC
:10093B0013051EE51E7002051D14F9120450FF125B
:05094B0009DC80E2223E
:04084400AB07AA064E
:10084800E4F5187C007D0AAF03AE02120469ED24BA
:1008580030FFAE18051874082EF8A6077C007D0A2C
:10086800AF03AE02120469AA06AB07EB4A70D4E5DF
:1008780018600E151874082518F8E6FF1209DC80B0
:01088800EE81
:01088900224C
:0807D2008F2E8E2D8D2C8C2B37
:1007DA0012024A8E318F32AC2FAD30E41202118FE1
:1007EA00288E278D268C257F007E007D207C411255
:1007FA000621C004C005C006C007AC31AD32E41200
:10080A000211A804A905AA06AB07AF2EAE2DAD2C7E
:10081A00AC2B120011D003D002D001D00012010675
:10082A0012024A8F828E83AF32AE311208447F2E73
:0A083A001209DCAF82AE830208440D
:1009AB00EF1392A0EFA2E192A1A2E292A2C2A3D274
:0A09BB00A3D2A4C2A4D2A6AFB022BA
:0C0A0200758902758AEC758CECD28C2290
:050A2E00D2AFD2A922A5
:03000B00020008E8
:03000800B2A7326A
:1008C7008F1A8D1B7BFF7A0979C512092BE51A75DB
:1008D700F0641209D8E51A75F06484E5F075F00A3A
:1008E7001209D8E51A75F00A84E5F02430FF1209D9
:0B08F700DC7FDF1209DC7F430209DC1C
:10088A00120A02120A2E1209707FC87E001209503B
:10089A007BFF7A0979CA12092B7FE87E0312095075
:1008AA001200037D037F01120990E4FF1209AB8F46
:0D08BA00191208C77FF47E0112095080E674
:10000E000202B6E86480F8E933E83360110460F068
:10001E00ED33EC337009E8FCE9FDEAFEEBFF220458
:10002E0060DED3EB9FEA9EE99DE8C2E78CF0C2F753
:10003E0095F0400CE8CCF8E9CDF9EACEFAEBCFFB1F
:10004E0012028185D0F05804700320D5B3E80470F5
:10005E00075002B2D50202C092D5EC0460F7E4CC90
:10006E00C0E0C398F8603B94186008400DD0E0FBE8
:10007E00020298E4FBFAC9FC8028E830E406E4C9E1
:10008E00FBE4CAFCE830E305E4C9CACBFCE854073C
:10009E006010F8C3E913F9EA13FAEB13FBEC13FC47
:1000AE00D8F130F52FC3E49CFCEF9BFFEE9AFEEDEA
:1000BE0099FDD0E0FBEF4E4D4C701222DB03020295
:1000CE00BDEC2CFCEF33FFEE33FEED33FDED30E7F0
:1000DE00EB020298EF2BFFEE3AFEED39FDD0E0FB7E
:1000EE0050130BBB00030202C0ED13FDEE13FEEF27
:0800FE0013FFEC13FC02029851
:10010600EC4D6011E8497017ED33EC3304600DE4F3
:10011600FCFFFEFD22E933E8330470F80202B61252
:10012600028158046009E4CC248150062850090253
:1001360002C02840030202BDC0E0EB4A7044B98009
:1001460006D0E0FB0202ACEF4E701CBD8008EBFF50
:10015600EAFEE9FD80EBE98DF0A4FEE5F00201EF91
:10016600E9CDF9EAFEEBFFEF89F0A4FCE5F0CE89D4
:10017600F0A42EFFE435F0CD89F0A42DFEE435F091
:100186008067EF4E7005BD80D780C3EF8BF0A4ACBF
:10019600F0EE8BF0A42CFCE435F0F8EF8AF0A42CFA
:1001A600E5F038FCE433CB8DF0A42CFCE5F03BF80D
:1001B600EE8AF0A42CFCE5F038F8E433CF89F0A4FD
:1001C6002CFCE5F038CF3400CE89F0A42FFFE5F003
:1001D6003EFEE433C98DF0A42EFEE5F039CD8AF05B
:1001E600A42FFFE5F03EFEE43DFD33D0E0FB5007D3
:1001F6000BBB000F0202C0EC2CFCEF33FFEE33FE0C
:06020600ED33FD02029839
:10020C0075F020800E75F010800575F0087D007E6D
:10021C00007F003392D530D5031204BEEC3340106E
:10022C00EF33FFEE33FEED33FDEC33FCD5F0ED2276
:0E023C00E5F0247EA2D513CC92E7CDCEFF22B2
:10024A00EDD2E7CD33EC3392D524814006E4FFFEAC
:10025A00FDFC22FCE4CFCECDCC24E0501174FF800B
:10026A00EDC3CC13CCCD13CDCE13CECF13CF0470A8
:07027A00F030D5DE0204BEE6
:100621008F248E238D228C21E4FFFE7D807C3FABC5
:1006310024AA23A922A8211202E57009AF24AE231E
:10064100AD22AC2122AF24AE23AD22AC211202CBCC
:10065100FBAF28AE27AD26AC251202CBFFBF0108A8
:10066100E4FFFE7D807C3F22EF64046022EB6404A2
:10067100601DBB0127E4FFFEFDFCAB28AA27A926CC
:10068100A8251202E560084006E4FFFEFDFC227485
:10069100FFF528F527F526F52502072FE4F529F5BD
:1006A1002AFFFEFDFCAB24AA23A922A8211202E500
:1006B100504BAF28AE27AD26AC2512024A8E298FAA
:1006C1002AAC29AD2AEC120211C8ECC8C9EDC9CA7D
:1006D100EECACBEFCBAF28AE27AD26AC2512001169
:1006E100E4FBFAF9F81202E570A5AF24AE23AD22BE
:1006F100AC211203528F248E238D228C21AF24AE84
:1007010023AD22AC21120520AB28AA27A926A825B2
:100711001201061207708F288E278D268C25E52A57
:1007210030E00B1203528F288E278D268C25AF289F
:07073100AE27AD26AC252226
:10028100E9D2E7C933E833F892D5EDD2E7CD33ECC3
:0702910033FC5002B2D5223C
:10029800EC30E7100FBF000C0EBE00080DBD0004C7
:1002A8000BEB6014A2D5EB13FCED92E7FD2274FF73
:1002B800FCFDFEFF22E480F8A2D574FF13FC7D80CC
:0302C800E480EFE0
:1002CB00ED33EC33601004700FED547F7005740246
:0A02DB0092E0227404220422E422BF
:1002E50074F8CC6480CCC86480C8F582046043C3CC
:1002F500EB9FF5F0EA9E42F0E99D42F0E89C45F05F
:1003050060305018E5825FFFE582F42B5582FB5083
:10031500210ABA001D09B90019088016E5825BFBA0
:10032500E582F42F5582FF50090EBE00050DBD0074
:10033500010CC3EB9FF5F0EA9E42F0E99D42F0E81F
:0D0345009C45F06007CC4820E701B3EC2296
:10035200ED33EC33600A047003BD8004ECB2E7FCB9
:010362002278
:1007380033DA929E35B16011377FE5FE392184891D
:100748003AAEC3FF3C1D955B3D6358473E75FDF0CF
:100758003F3172183F800000C2D50202C00202B6C3
:10076800BD80FA50F30202BDED33EC330460F17B37
:100778003B7AAA79B8783F120106ED33EC3392D56B
:10078800247B5011A2D570DB500BED44802404501B
:1007980004A2D580CEEFFBEEFAEDF9ECF812024A8E
:1007A800EFF582F404FC120216120015C0829007BD
:1007B800387409120412ED33CC33D0F092D525F0F9
:0A07C800A2D57001C313CC13FD226B
:1004EC003E9248DA3ECCCCCD3F2AAAAB400000006D
:1004FC003F8000003F9837F03FB504F33FD744FCF2
:10050C003E3172173EB172173F0515913EDE5BD935
:10051C00D2008002C200EDD2E7F8CD33EC33047088
:10052C000BBD800592D50202C00202B640FBD3146B
:10053C0060F2F5F07C3FEE7A00C39496C8948B4041
:10054C00230AC89469C8941A401A0AC89468C894B3
:10055C001F40110AC8945AC89425400805F07A0027
:10056C00CDC2E7CDC0F08C338D348E358F36EA2377
:10057C0023C0E024FCF582E43404F5831204DC127D
:10058C000015ECC0E0EDC0E0EEC0E0EFC0E01204FE
:10059C00CCA833A934AA35AB36120011D0E0FBD06D
:1005AC00E0FAD0E0F9D0E0B2E7F81203668C338DB4
:1005BC00348E358F369004EC7403120403A833A9DF
:1005CC0034AA35AB36120106D0E0600F2408F58250
:1005DC00E43405F5831204DC1200158C338D348E53
:1005EC00358F36D0E0C3947FFDE49400FC120211E9
:1005FC007B187A727931783F120106A833A934AA94
:10060C0035AB3612001530000B7BD97A5B79DE786E
:05061C003E1201062260
:100363000202C0EC5D046005E8590470030202B6A2
:10037300120281580460F6EC4860F2EC7004FDFE52
:10038300FF22C860DB2481C85009C398600250066D
:100393000202BD9850CAF582E9294B4A7005AB8227
:1003A3000202AC75F0007C1A7880C3EF9BEE9AEDE5
:1003B30099400DC3EF9BFFEE9AFEED99FDE842F0E5
:1003C300DC23ACF0D0E0FFD0E0FED0E0FDAB822038
:1003D300E7101BEB60BAEC2CFCEF33FFEE33FEEDC2
:1003E30033FD020298E803F830E705C0F075F0002A
:1003F300EF2FFFEE33FEED33FD40B830E7C280AAA6
:10040300C0E0EFFBEEFAEDF9ECF8120106D0E0F5EF
:10041300F0EFFBEEFAEDF9ECF81204CCA3A3A3A3DF
:10042300E8C0E0E9C0E0EAC0E0EBC0E0C0F01201E0
:10043300061204DCA3A3A3A3120015D0F0D0E0FBA3
:0D044300D0E0FAD0E0F9D0E0F8D5F0D422F6
:03000000020A0EE3
:0C0A0E00787FE4F6D8FD75813602088A76
:10045000BB010689828A83E0225002E722BBFE02AA
:09046000E32289828A83E49322DD
:10046900BC000BBE0029EF8DF084FFADF022E4CC77
:10047900F875F008EF2FFFEE33FEEC33FCEE9DEC40
:10048900984005FCEE9DFE0FD5F0E9E4CEFD22ED86
:10049900F8F5F0EE8420D21CFEADF075F008EF2FD0
:1004A900FFED33FD4007985006D5F0F222C398FDC1
:0504B9000FD5F0EA225E
:0E04BE00C3E49FFFE49EFEE49DFDE49CFC224F
:1004CC00E493FC740193FD740293FE740393FF2276
:1004DC00E493F8740193F9740293FA740393FB2276
:00000001FF
