:10007D00EF1392B2EFA2E192B3A2E292B4C2B5D263
:08008D00B5D2B7C2B7AF902253
:0F009500758920758DFD759850D28E75A89022B3
:10005800E4FDFCE4FBFAC3EB9FEE6480F8EA6480FD
:100068009850070BBB00010A80EC0DBD00010CED98
:04007800F44C70DFF5
:01007C002261
:03002300020003D5
:10000300C0E0C0D0309814C298859908E50824CF81
:100013006007047006C2808002D280D0D0D0E03264
:10002600120095E4F9AF0112007DEF75F00A84C461
:1000360054F0FEEF75F00A84EE45F0F5A085A09920
:100046003099FDC2997FC87E0012005809B908D5BB
:0200560080D157
:030000000200A457
:0C00A400787FE4F6D8FD75810802002684
:00000001FF
