:0C0134000A08C0F9A4B0999282F88090EB
:10011A00EF139293EFA2E19292A2E29291C290D24D
:0A012A0090D296C296D294AFB02294
:0700FB00F8E6F58043808068
:10010200E4FDFCC3ED9FEE6480F8EC648098500738
:070112000DBD00010C80ECA3
:0101190022C3
:10008F00E4FBE4FA75A00874092BF8E6F5805380B9
:10009F007F7FF47E01120102AF0312011AA907E953
:1000AF0075F06484F512E975F00A8475F00A848599
:1000BF00F013E975F00A8485F01475A0047408250F
:1000CF0012F8E6F5804380807FF412010275A002DA
:1000DF00740825131200FB75A00174082514120073
:0B00EF00FB0ABA1E9F0BEB6408709721
:0100FA0022E3
:03000000020003F8
:0C000300787FE4F6D8FD75811402004AF5
:10000F0002008FE493A3F8E493A34003F68001F278
:10001F0008DFF48029E493A3F85407240CC8C333F2
:10002F00C4540F4420C8834004F456800146F6DFC1
:10003F00E4800B0102040810204080900134E47E1C
:10004F00019360BCA3FF543F30E509541FFEE493B6
:10005F00A360010ECF54C025E060A840B8E493A37D
:10006F00FAE493A3F8E493A3C8C582C8CAC583CAA8
:10007F00F0A3C8C582C8CAC583CADFE9DEE780BE60
:0101400000BE
:00000001FF
