:070054004FF5A07FF47E01CF
:10005B00E4FDFCC3ED9FEC9E5015E4FBFA0BBB00DB
:0F006B00010AEB647B4A70F50DBD00010C80E4C7
:01007A002263
:0200E0008F0887
:1000E200E4F9E9C39508500F75A0FF120057E4F533
:0700F200A012005B0980EB86
:0100F90022E4
:0200FA008F086D
:1000FC00E4F9E9C39508500F75A05512005775A087
:07010C00AA12005B0980EB61
:0101130022C9
:02007B008F08EC
:10007D00E4F509E509C395085018E4F97401A801E0
:10008D00088002C333D8FC12005509B908EE0509E2
:02009D0080E100
:01009F00223E
:0200A0008F08C7
:1000A200E4F509E509C395085018E4F97480A8013C
:1000B200088002C313D8FC12005509B908EE0509DD
:0200C20080E1DB
:0100C4002219
:020003008F0864
:10000500E4F509E509C395085044E4F97401A8012C
:10001500088002C333D8FCFF7480A801088002C39E
:1000250013D8FC12005409B904E279017410A8012F
:10003500088002C333D8FCFF7408A801088002C3F6
:0E00450013D8FC12005409B904E2050980B575
:01005300228A
:1000C5007F031200E07F0112007B7F011200A07FF9
:0B00D500031200FA7F0112000380E517
:03000000020114E6
:0C011400787FE4F6D8FD7581090200C573
:00000001FF
