:1001A500758901C2A9758C3C758AB0C28DD28C3017
:0501B5008DFDC28C224B
:0700DF004FF5907FF47E0154
:0400E600AB07AA06B4
:1000EA009000007C007D32AF03AE02120003C3E52C
:1000FA00829FEE6480F8E58364809850061201A519
:03010A00A380E0EF
:01010D0022CF
:02018D008F08D9
:10018F00E4F9E9C39508500D7590FF1200E2E412EF
:05019F0000E00980ED05
:0101A4002238
:020173008F08F3
:10017500E4F9E9C39508500F7590551200E27590A2
:07018500AA1200E20980EB61
:01018C002250
:02010E008F0858
:10011000E4F509E509C395085018E4F97401A8014C
:10012000088002C333D8FC1200E009B908EE0509C3
:0201300080E16C
:0101320022AA
:020133008F0833
:10013500E4F509E509C395085018E4F97480A801A8
:10014500088002C313D8FC1200E009B908EE0509BE
:0201550080E147
:010157002285
:02008E008F08D9
:10009000E4F509E509C395085044E4F97401A801A1
:1000A000088002C333D8FCFF7480A801088002C313
:1000B00013D8FC1200DF09B904E279017410A80119
:1000C000088002C333D8FCFF7408A801088002C36B
:0E00D00013D8FC1200DF09B904E2050980B55F
:0100DE0022FF
:100158007F0512018D7F0112010E7F011201337F8D
:0B016800031201737F0112008E80E57E
:030000000201BA40
:0C01BA00787FE4F6D8FD75810902015839
:10000300C2D5EC30E709B2D5E4C39DFDE49CFCEE18
:1000130030E715B2D5E4C39FFFE49EFE120039C357
:10002300E49DFDE49CFC800312003930D507C3E452
:060033009FFFE49EFE2287
:10003900BC000BBE0029EF8DF084FFADF022E4CCAB
:10004900F875F008EF2FFFEE33FEEC33FCEE9DEC74
:10005900984005FCEE9DFE0FD5F0E9E4CEFD22EDBA
:10006900F8F5F0EE8420D21CFEADF075F008EF2F04
:10007900FFED33FD4007985006D5F0F222C398FDF5
:050089000FD5F0EA2292
:00000001FF
