:10006100546573742045787465726E616C205241D9
:100071004D2036324332353600526573657420584F
:1000810072616D202E2E2E005265736574205241CF
:0D0091004D20636F6D706C6574656C7900B7
:100003007FFD120113D2B2D2B3D2B47BFF7A00794F
:10001300611200D512014212009E3098FD12015464
:100023008F08C2B2E50824B4600E24D7701BC2B394
:10003300D2B4E50824E08008C2B4D2B3E508242092
:10004300FF12014C1201428004D2B3D2B4AF087E36
:0E005300001201378F0912014C12014280BCCD
:0D0113007598507589208F8DC28FD28E2275
:08014C008F993099FDC2992240
:1000D5008B0C8A0D890EAB0CAA0DA90E1200FA60C5
:1000E50013050EE50E7002050D14F91200FAFF1244
:0500F500014C80E22235
:0A0142007F0D12014C7F0A02014CF0
:05015400C298AF9922E2
:10009E007BFF7A00797A1200D5120142E4F50AF557
:1000AE000BAD0BAF0BAE0A12012C050BE50B70025C
:1000BE00050AC39401E50A940140E67BFF7A0079B4
:0700CE00891200D502014276
:0B012C008E0F8F108F828E83EDF0226B
:0B0137008E0F8F108F828E83E0FF225E
:03000000020120DA
:0C012000787FE4F6D8FD75811002000322
:1000FA00BB010689828A83E0225002E722BBFE0204
:09010A00E32289828A83E4932236
:00000001FF
