:0500D90064616E680087
:10005300E4FDFCC3ED9FEE6480F8EC6480985015DA
:10006300E4FBFA0BBB00010AEB647B4A70F50DBDA0
:0500730000010C80DE1D
:010078002265
:1000B200D2AFD2AC759850758920758BFD758DFDC8
:0300C200D28E22B9
:03002300020003D5
:10000300C0E0C0D0309814C29885990BE50B24CF7B
:100013006007047006C2A78002D2A7D0D0D0E03216
:0800D1008F993099FDC29922BC
:060079008B088A09890AC8
:10007F00E4FDFCAB08AA09A90A8D828C8312002625
:0D008F00FF600A1200D10DBD00010C80E6DB
:01009C002241
:10009D001200B27BFF7A0079D91200797FE87E03D6
:0500AD0012005380EE7B
:030000000200C536
:0C00C500787FE4F6D8FD75810B02009DE9
:10002600BB010CE58229F582E5833AF583E022508F
:1000360006E92582F8E622BBFE06E92582F8E222D9
:0D004600E58229F582E5833AF583E49322F3
:00000001FF
